{"abi":[{"type":"constructor","inputs":[],"stateMutability":"nonpayable"},{"type":"function","name":"approveHandlers","inputs":[{"name":"tokens","type":"address[]","internalType":"address[]"},{"name":"protocols","type":"address[]","internalType":"address[]"}],"outputs":[],"stateMutability":"payable"},{"type":"function","name":"recoverTokens","inputs":[{"name":"tokens","type":"address[]","internalType":"address[]"}],"outputs":[],"stateMutability":"payable"},{"type":"function","name":"whack","inputs":[{"name":"paramsArray","type":"tuple[]","internalType":"struct WhackAMoleBotV1.SwapParams[]","components":[{"name":"protocol","type":"uint8","internalType":"uint8"},{"name":"handler","type":"address","internalType":"address"},{"name":"tokenIn","type":"address","internalType":"address"},{"name":"tokenOut","type":"address","internalType":"address"},{"name":"fee","type":"uint24","internalType":"uint24"},{"name":"amount","type":"uint256","internalType":"uint256"}]},{"name":"minAmountOut","type":"uint256","internalType":"uint256"}],"outputs":[{"name":"","type":"uint256","internalType":"uint256"}],"stateMutability":"payable"},{"type":"error","name":"TradeFailed","inputs":[]},{"type":"error","name":"Unauthorized","inputs":[]}],"bytecode":{"object":"0x60a0604052348015600f57600080fd5b5033608052608051610e0161002f60003960006102c80152610e016000f3fe6080604052600436106100345760003560e01c80639c832f9314610039578063bc2078fb1461004e578063c0f757c014610061575b600080fd5b61004c610047366004610990565b610086565b005b61004c61005c3660046109d2565b610154565b61007461006f366004610a3e565b6101f6565b60405190815260200160405180910390f35b61008e6102bd565b8060005b8181101561014e5760008484838181106100ae576100ae610ab9565b90506020020160208101906100c39190610aeb565b6040516370a0823160e01b81523060048201529091506101459033906001600160a01b038416906370a0823190602401602060405180830381865afa158015610110573d6000803e3d6000fd5b505050506040513d601f19601f820116820180604052508101906101349190610b06565b6001600160a01b0384169190610307565b50600101610092565b50505050565b600019838260005b828110156101ec57600088888381811061017857610178610ab9565b905060200201602081019061018d9190610aeb565b905060005b838110156101e25760008888838181106101ae576101ae610ab9565b90506020020160208101906101c39190610aeb565b90506101d96001600160a01b038416828961036f565b50600101610192565b505060010161015c565b5050505050505050565b60006102006102bd565b600083815b8181101561029257600087878381811061022157610221610ab9565b905060c002018036038101906102379190610b8f565b90508360000361024d578060a001519350610255565b60a081018490525b805160ff166000036102715761026a81610489565b9350610289565b805160ff1660010361028957610286816105cb565b93505b50600101610205565b50838210156102b457604051632d8ef0cf60e01b815260040160405180910390fd5b50949350505050565b336001600160a01b037f00000000000000000000000000000000000000000000000000000000000000001614610305576040516282b42960e81b815260040160405180910390fd5b565b6040516001600160a01b03831660248201526044810182905261036a90849063a9059cbb60e01b906064015b60408051601f198184030181529190526020810180516001600160e01b03166001600160e01b0319909316929092179091526106df565b505050565b8015806103e95750604051636eb1769f60e11b81523060048201526001600160a01b03838116602483015284169063dd62ed3e90604401602060405180830381865afa1580156103c3573d6000803e3d6000fd5b505050506040513d601f19601f820116820180604052508101906103e79190610b06565b155b6104595760405162461bcd60e51b815260206004820152603660248201527f5361666545524332303a20617070726f76652066726f6d206e6f6e2d7a65726f60448201527520746f206e6f6e2d7a65726f20616c6c6f77616e636560501b60648201526084015b60405180910390fd5b6040516001600160a01b03831660248201526044810182905261036a90849063095ea7b360e01b90606401610333565b60408051600280825260608083018452600093909291906020830190803683370190505090508260400151816000815181106104c7576104c7610ab9565b60200260200101906001600160a01b031690816001600160a01b0316815250508260600151816001815181106104ff576104ff610ab9565b60200260200101906001600160a01b031690816001600160a01b031681525050600083602001516001600160a01b03166338ed17398560a0015160008530426040518663ffffffff1660e01b815260040161055e959493929190610c1d565b6000604051808303816000875af115801561057d573d6000803e3d6000fd5b505050506040513d6000823e601f3d908101601f191682016040526105a59190810190610c90565b9050806001815181106105ba576105ba610ab9565b602002602001015192505050919050565b6040805161010081018252828201516001600160a01b0390811682526060808501518216602080850191825260808088015162ffffff908116878901908152309588019586524292880192835260a0808b0151908901908152600060c08a0181815260e08b01828152968d01519b5163414bf38960e01b81528b518b16600482015297518a1660248901529251909316604487015295518716606486015291516084850152935160a48401525160c483015251831660e482015290939091169063414bf38990610104016020604051808303816000875af11580156106b4573d6000803e3d6000fd5b505050506040513d601f19601f820116820180604052508101906106d89190610b06565b9392505050565b6000610734826040518060400160405280602081526020017f5361666545524332303a206c6f772d6c6576656c2063616c6c206661696c6564815250856001600160a01b03166107b49092919063ffffffff16565b90508051600014806107555750808060200190518101906107559190610d36565b61036a5760405162461bcd60e51b815260206004820152602a60248201527f5361666545524332303a204552433230206f7065726174696f6e20646964206e6044820152691bdd081cdd58d8d9595960b21b6064820152608401610450565b60606107c384846000856107cb565b949350505050565b60608247101561082c5760405162461bcd60e51b815260206004820152602660248201527f416464726573733a20696e73756666696369656e742062616c616e636520666f6044820152651c8818d85b1b60d21b6064820152608401610450565b600080866001600160a01b031685876040516108489190610d7c565b60006040518083038185875af1925050503d8060008114610885576040519150601f19603f3d011682016040523d82523d6000602084013e61088a565b606091505b509150915061089b878383876108a6565b979650505050505050565b6060831561091557825160000361090e576001600160a01b0385163b61090e5760405162461bcd60e51b815260206004820152601d60248201527f416464726573733a2063616c6c20746f206e6f6e2d636f6e74726163740000006044820152606401610450565b50816107c3565b6107c3838381511561092a5781518083602001fd5b8060405162461bcd60e51b81526004016104509190610d98565b60008083601f84011261095657600080fd5b50813567ffffffffffffffff81111561096e57600080fd5b6020830191508360208260051b850101111561098957600080fd5b9250929050565b600080602083850312156109a357600080fd5b823567ffffffffffffffff8111156109ba57600080fd5b6109c685828601610944565b90969095509350505050565b600080600080604085870312156109e857600080fd5b843567ffffffffffffffff80821115610a0057600080fd5b610a0c88838901610944565b90965094506020870135915080821115610a2557600080fd5b50610a3287828801610944565b95989497509550505050565b600080600060408486031215610a5357600080fd5b833567ffffffffffffffff80821115610a6b57600080fd5b818601915086601f830112610a7f57600080fd5b813581811115610a8e57600080fd5b87602060c083028501011115610aa357600080fd5b6020928301989097509590910135949350505050565b634e487b7160e01b600052603260045260246000fd5b80356001600160a01b0381168114610ae657600080fd5b919050565b600060208284031215610afd57600080fd5b6106d882610acf565b600060208284031215610b1857600080fd5b5051919050565b634e487b7160e01b600052604160045260246000fd5b60405160c0810167ffffffffffffffff81118282101715610b5857610b58610b1f565b60405290565b604051601f8201601f1916810167ffffffffffffffff81118282101715610b8757610b87610b1f565b604052919050565b600060c08284031215610ba157600080fd5b610ba9610b35565b823560ff81168114610bba57600080fd5b8152610bc860208401610acf565b6020820152610bd960408401610acf565b6040820152610bea60608401610acf565b6060820152608083013562ffffff81168114610c0557600080fd5b608082015260a0928301359281019290925250919050565b600060a08201878352602087602085015260a0604085015281875180845260c08601915060208901935060005b81811015610c6f5784516001600160a01b031683529383019391830191600101610c4a565b50506001600160a01b03969096166060850152505050608001529392505050565b60006020808385031215610ca357600080fd5b825167ffffffffffffffff80821115610cbb57600080fd5b818501915085601f830112610ccf57600080fd5b815181811115610ce157610ce1610b1f565b8060051b9150610cf2848301610b5e565b8181529183018401918481019088841115610d0c57600080fd5b938501935b83851015610d2a57845182529385019390850190610d11565b98975050505050505050565b600060208284031215610d4857600080fd5b815180151581146106d857600080fd5b60005b83811015610d73578181015183820152602001610d5b565b50506000910152565b60008251610d8e818460208701610d58565b9190910192915050565b6020815260008251806020840152610db7816040850160208701610d58565b601f01601f1916919091016040019291505056fea26469706673582212202f85f50b83d561a0d1dca4779d6ba1218086f4f1a350a1048f782729e5077aec64736f6c63430008190033","linkReferences":{}},"methodIdentifiers":{"approveHandlers(address[],address[])":"bc2078fb","recoverTokens(address[])":"9c832f93","whack((uint8,address,address,address,uint24,uint256)[],uint256)":"c0f757c0"},"id":23}